{
  "_format": "hh-sol-artifact-1",
  "contractName": "ThreatIntelFeed",
  "sourceName": "contracts/ThreatIntelFeed.sol",
  "abi": [
    {
      "anonymous": false,
      "inputs": [
        {
          "indexed": false,
          "internalType": "uint256",
          "name": "id",
          "type": "uint256"
        },
        {
          "indexed": false,
          "internalType": "string",
          "name": "name",
          "type": "string"
        },
        {
          "indexed": false,
          "internalType": "string",
          "name": "value",
          "type": "string"
        },
        {
          "indexed": false,
          "internalType": "string",
          "name": "types",
          "type": "string"
        },
        {
          "indexed": false,
          "internalType": "uint256",
          "name": "confidence",
          "type": "uint256"
        },
        {
          "indexed": false,
          "internalType": "address",
          "name": "source",
          "type": "address"
        },
        {
          "indexed": false,
          "internalType": "string[]",
          "name": "tags",
          "type": "string[]"
        },
        {
          "indexed": false,
          "internalType": "string",
          "name": "description",
          "type": "string"
        }
      ],
      "name": "IndicatorAdded",
      "type": "event"
    },
    {
      "anonymous": false,
      "inputs": [
        {
          "indexed": false,
          "internalType": "uint256",
          "name": "id",
          "type": "uint256"
        },
        {
          "indexed": false,
          "internalType": "string",
          "name": "name",
          "type": "string"
        },
        {
          "indexed": false,
          "internalType": "int256",
          "name": "confidence",
          "type": "int256"
        },
        {
          "indexed": true,
          "internalType": "address",
          "name": "voter",
          "type": "address"
        }
      ],
      "name": "confidenceUpdated",
      "type": "event"
    },
    {
      "inputs": [
        {
          "internalType": "string",
          "name": "_name",
          "type": "string"
        },
        {
          "internalType": "string",
          "name": "_value",
          "type": "string"
        },
        {
          "internalType": "string",
          "name": "_types",
          "type": "string"
        },
        {
          "internalType": "string[]",
          "name": "_tags",
          "type": "string[]"
        },
        {
          "internalType": "string",
          "name": "_description",
          "type": "string"
        }
      ],
      "name": "addIndicator",
      "outputs": [],
      "stateMutability": "nonpayable",
      "type": "function"
    },
    {
      "inputs": [],
      "name": "counter",
      "outputs": [
        {
          "internalType": "uint256",
          "name": "",
          "type": "uint256"
        }
      ],
      "stateMutability": "view",
      "type": "function"
    },
    {
      "inputs": [
        {
          "internalType": "uint256",
          "name": "id",
          "type": "uint256"
        }
      ],
      "name": "decrementConfidence",
      "outputs": [],
      "stateMutability": "nonpayable",
      "type": "function"
    },
    {
      "inputs": [
        {
          "internalType": "uint256",
          "name": "id",
          "type": "uint256"
        }
      ],
      "name": "getIndicator",
      "outputs": [
        {
          "components": [
            {
              "internalType": "uint256",
              "name": "id",
              "type": "uint256"
            },
            {
              "internalType": "string",
              "name": "name",
              "type": "string"
            },
            {
              "internalType": "string",
              "name": "value",
              "type": "string"
            },
            {
              "internalType": "string",
              "name": "types",
              "type": "string"
            },
            {
              "internalType": "uint256",
              "name": "confidence",
              "type": "uint256"
            },
            {
              "internalType": "address",
              "name": "source",
              "type": "address"
            },
            {
              "internalType": "uint256",
              "name": "first_seen",
              "type": "uint256"
            },
            {
              "internalType": "uint256",
              "name": "last_seen",
              "type": "uint256"
            },
            {
              "internalType": "string[]",
              "name": "tags",
              "type": "string[]"
            },
            {
              "internalType": "string",
              "name": "description",
              "type": "string"
            }
          ],
          "internalType": "struct ThreatIntelFeed.Indicator",
          "name": "",
          "type": "tuple"
        }
      ],
      "stateMutability": "view",
      "type": "function"
    },
    {
      "inputs": [],
      "name": "getIndicators",
      "outputs": [
        {
          "components": [
            {
              "internalType": "uint256",
              "name": "id",
              "type": "uint256"
            },
            {
              "internalType": "string",
              "name": "name",
              "type": "string"
            },
            {
              "internalType": "string",
              "name": "value",
              "type": "string"
            },
            {
              "internalType": "string",
              "name": "types",
              "type": "string"
            },
            {
              "internalType": "uint256",
              "name": "confidence",
              "type": "uint256"
            },
            {
              "internalType": "address",
              "name": "source",
              "type": "address"
            },
            {
              "internalType": "uint256",
              "name": "first_seen",
              "type": "uint256"
            },
            {
              "internalType": "uint256",
              "name": "last_seen",
              "type": "uint256"
            },
            {
              "internalType": "string[]",
              "name": "tags",
              "type": "string[]"
            },
            {
              "internalType": "string",
              "name": "description",
              "type": "string"
            }
          ],
          "internalType": "struct ThreatIntelFeed.Indicator[]",
          "name": "",
          "type": "tuple[]"
        }
      ],
      "stateMutability": "view",
      "type": "function"
    },
    {
      "inputs": [
        {
          "internalType": "uint256",
          "name": "id",
          "type": "uint256"
        }
      ],
      "name": "incrementConfidence",
      "outputs": [],
      "stateMutability": "nonpayable",
      "type": "function"
    },
    {
      "inputs": [
        {
          "internalType": "uint256",
          "name": "",
          "type": "uint256"
        }
      ],
      "name": "indicators",
      "outputs": [
        {
          "internalType": "uint256",
          "name": "id",
          "type": "uint256"
        },
        {
          "internalType": "string",
          "name": "name",
          "type": "string"
        },
        {
          "internalType": "string",
          "name": "value",
          "type": "string"
        },
        {
          "internalType": "string",
          "name": "types",
          "type": "string"
        },
        {
          "internalType": "uint256",
          "name": "confidence",
          "type": "uint256"
        },
        {
          "internalType": "address",
          "name": "source",
          "type": "address"
        },
        {
          "internalType": "uint256",
          "name": "first_seen",
          "type": "uint256"
        },
        {
          "internalType": "uint256",
          "name": "last_seen",
          "type": "uint256"
        },
        {
          "internalType": "string",
          "name": "description",
          "type": "string"
        }
      ],
      "stateMutability": "view",
      "type": "function"
    }
  ],
  "bytecode": "0x6080604052348015600f57600080fd5b506122998061001f6000396000f3fe608060405234801561001057600080fd5b506004361061007d5760003560e01c80635290ea951161005b5780635290ea95146100ec57806361bc221a1461010857806392c871d214610126578063d16d41641461015e5761007d565b80630ff0832114610082578063313c74c3146100a0578063339df2cf146100d0575b600080fd5b61008a61017a565b6040516100979190611558565b60405180910390f35b6100ba60048036038101906100b591906115ba565b6105e8565b6040516100c791906116dd565b60405180910390f35b6100ea60048036038101906100e591906115ba565b610a06565b005b610106600480360381019061010191906115ba565b610b04565b005b610110610c5b565b60405161011d919061170e565b60405180910390f35b610140600480360381019061013b91906115ba565b610c61565b60405161015599989796959493929190611782565b60405180910390f35b61017860048036038101906101739190611a46565b610eef565b005b60606000805467ffffffffffffffff81111561019957610198611835565b5b6040519080825280602002602001820160405280156101d257816020015b6101bf6110b1565b8152602001906001900390816101b75790505b5090506000600190505b60005481116105e05760016000828152602001908152602001600020604051806101400160405290816000820154815260200160018201805461021e90611b7c565b80601f016020809104026020016040519081016040528092919081815260200182805461024a90611b7c565b80156102975780601f1061026c57610100808354040283529160200191610297565b820191906000526020600020905b81548152906001019060200180831161027a57829003601f168201915b505050505081526020016002820180546102b090611b7c565b80601f01602080910402602001604051908101604052809291908181526020018280546102dc90611b7c565b80156103295780601f106102fe57610100808354040283529160200191610329565b820191906000526020600020905b81548152906001019060200180831161030c57829003601f168201915b5050505050815260200160038201805461034290611b7c565b80601f016020809104026020016040519081016040528092919081815260200182805461036e90611b7c565b80156103bb5780601f10610390576101008083540402835291602001916103bb565b820191906000526020600020905b81548152906001019060200180831161039e57829003601f168201915b50505050508152602001600482015481526020016005820160009054906101000a900473ffffffffffffffffffffffffffffffffffffffff1673ffffffffffffffffffffffffffffffffffffffff1673ffffffffffffffffffffffffffffffffffffffff168152602001600682015481526020016007820154815260200160088201805480602002602001604051908101604052809291908181526020016000905b8282101561050957838290600052602060002001805461047c90611b7c565b80601f01602080910402602001604051908101604052809291908181526020018280546104a890611b7c565b80156104f55780601f106104ca576101008083540402835291602001916104f5565b820191906000526020600020905b8154815290600101906020018083116104d857829003601f168201915b50505050508152602001906001019061045d565b50505050815260200160098201805461052190611b7c565b80601f016020809104026020016040519081016040528092919081815260200182805461054d90611b7c565b801561059a5780601f1061056f5761010080835404028352916020019161059a565b820191906000526020600020905b81548152906001019060200180831161057d57829003601f168201915b505050505081525050826001836105b19190611bdc565b815181106105c2576105c1611c10565b5b602002602001018190525080806105d890611c3f565b9150506101dc565b508091505090565b6105f06110b1565b60008211801561060257506000548211155b610641576040517f08c379a000000000000000000000000000000000000000000000000000000000815260040161063890611cd3565b60405180910390fd5b60016000838152602001908152602001600020604051806101400160405290816000820154815260200160018201805461067a90611b7c565b80601f01602080910402602001604051908101604052809291908181526020018280546106a690611b7c565b80156106f35780601f106106c8576101008083540402835291602001916106f3565b820191906000526020600020905b8154815290600101906020018083116106d657829003601f168201915b5050505050815260200160028201805461070c90611b7c565b80601f016020809104026020016040519081016040528092919081815260200182805461073890611b7c565b80156107855780601f1061075a57610100808354040283529160200191610785565b820191906000526020600020905b81548152906001019060200180831161076857829003601f168201915b5050505050815260200160038201805461079e90611b7c565b80601f01602080910402602001604051908101604052809291908181526020018280546107ca90611b7c565b80156108175780601f106107ec57610100808354040283529160200191610817565b820191906000526020600020905b8154815290600101906020018083116107fa57829003601f168201915b50505050508152602001600482015481526020016005820160009054906101000a900473ffffffffffffffffffffffffffffffffffffffff1673ffffffffffffffffffffffffffffffffffffffff1673ffffffffffffffffffffffffffffffffffffffff168152602001600682015481526020016007820154815260200160088201805480602002602001604051908101604052809291908181526020016000905b828210156109655783829060005260206000200180546108d890611b7c565b80601f016020809104026020016040519081016040528092919081815260200182805461090490611b7c565b80156109515780601f1061092657610100808354040283529160200191610951565b820191906000526020600020905b81548152906001019060200180831161093457829003601f168201915b5050505050815260200190600101906108b9565b50505050815260200160098201805461097d90611b7c565b80601f01602080910402602001604051908101604052809291908181526020018280546109a990611b7c565b80156109f65780601f106109cb576101008083540402835291602001916109f6565b820191906000526020600020905b8154815290600101906020018083116109d957829003601f168201915b5050505050815250509050919050565b600081118015610a1857506000548111155b610a57576040517f08c379a0000000000000000000000000000000000000000000000000000000008152600401610a4e90611cd3565b60405180910390fd5b60018060008381526020019081526020016000206004016000828254610a7d9190611cf3565b925050819055503373ffffffffffffffffffffffffffffffffffffffff167ff2b5b9956fcd57fe921fc655b1cc6ec4e7f8a69a869d7a171101c5650fd1045f82600160008581526020019081526020016000206001016001600086815260200190815260200160002060040154604051610af993929190611dd9565b60405180910390a250565b600081118015610b1657506000548111155b610b55576040517f08c379a0000000000000000000000000000000000000000000000000000000008152600401610b4c90611cd3565b60405180910390fd5b6000600160008381526020019081526020016000206004015411610bae576040517f08c379a0000000000000000000000000000000000000000000000000000000008152600401610ba590611e63565b60405180910390fd5b60018060008381526020019081526020016000206004016000828254610bd49190611bdc565b925050819055503373ffffffffffffffffffffffffffffffffffffffff167ff2b5b9956fcd57fe921fc655b1cc6ec4e7f8a69a869d7a171101c5650fd1045f82600160008581526020019081526020016000206001016001600086815260200190815260200160002060040154604051610c5093929190611dd9565b60405180910390a250565b60005481565b6001602052806000526040600020600091509050806000015490806001018054610c8a90611b7c565b80601f0160208091040260200160405190810160405280929190818152602001828054610cb690611b7c565b8015610d035780601f10610cd857610100808354040283529160200191610d03565b820191906000526020600020905b815481529060010190602001808311610ce657829003601f168201915b505050505090806002018054610d1890611b7c565b80601f0160208091040260200160405190810160405280929190818152602001828054610d4490611b7c565b8015610d915780601f10610d6657610100808354040283529160200191610d91565b820191906000526020600020905b815481529060010190602001808311610d7457829003601f168201915b505050505090806003018054610da690611b7c565b80601f0160208091040260200160405190810160405280929190818152602001828054610dd290611b7c565b8015610e1f5780601f10610df457610100808354040283529160200191610e1f565b820191906000526020600020905b815481529060010190602001808311610e0257829003601f168201915b5050505050908060040154908060050160009054906101000a900473ffffffffffffffffffffffffffffffffffffffff1690806006015490806007015490806009018054610e6c90611b7c565b80601f0160208091040260200160405190810160405280929190818152602001828054610e9890611b7c565b8015610ee55780601f10610eba57610100808354040283529160200191610ee5565b820191906000526020600020905b815481529060010190602001808311610ec857829003601f168201915b5050505050905089565b600080815480929190610f0190611c3f565b91905055506040518061014001604052806000548152602001868152602001858152602001848152602001600081526020013373ffffffffffffffffffffffffffffffffffffffff168152602001428152602001428152602001838152602001828152506001600080548152602001908152602001600020600082015181600001556020820151816001019081610f98919061202f565b506040820151816002019081610fae919061202f565b506060820151816003019081610fc4919061202f565b506080820151816004015560a08201518160050160006101000a81548173ffffffffffffffffffffffffffffffffffffffff021916908373ffffffffffffffffffffffffffffffffffffffff16021790555060c0820151816006015560e0820151816007015561010082015181600801908051906020019061104792919061111a565b5061012082015181600901908161105e919061202f565b509050507f2fca92b6dcb505df27b4d26aceff64edbe5055e1e6abe41d1ae739e09a45438360005486868660003388886040516110a29897969594939291906121c2565b60405180910390a15050505050565b6040518061014001604052806000815260200160608152602001606081526020016060815260200160008152602001600073ffffffffffffffffffffffffffffffffffffffff168152602001600081526020016000815260200160608152602001606081525090565b828054828255906000526020600020908101928215611162579160200282015b82811115611161578251829081611151919061202f565b509160200191906001019061113a565b5b50905061116f9190611173565b5090565b5b80821115611193576000818161118a9190611197565b50600101611174565b5090565b5080546111a390611b7c565b6000825580601f106111b557506111d4565b601f0160209004906000526020600020908101906111d391906111d7565b5b50565b5b808211156111f05760008160009055506001016111d8565b5090565b600081519050919050565b600082825260208201905092915050565b6000819050602082019050919050565b6000819050919050565b61123381611220565b82525050565b600081519050919050565b600082825260208201905092915050565b60005b83811015611273578082015181840152602081019050611258565b60008484015250505050565b6000601f19601f8301169050919050565b600061129b82611239565b6112a58185611244565b93506112b5818560208601611255565b6112be8161127f565b840191505092915050565b600073ffffffffffffffffffffffffffffffffffffffff82169050919050565b60006112f4826112c9565b9050919050565b611304816112e9565b82525050565b600081519050919050565b600082825260208201905092915050565b6000819050602082019050919050565b60006113428383611290565b905092915050565b6000602082019050919050565b60006113628261130a565b61136c8185611315565b93508360208202850161137e85611326565b8060005b858110156113ba578484038952815161139b8582611336565b94506113a68361134a565b925060208a01995050600181019050611382565b50829750879550505050505092915050565b6000610140830160008301516113e5600086018261122a565b50602083015184820360208601526113fd8282611290565b915050604083015184820360408601526114178282611290565b915050606083015184820360608601526114318282611290565b9150506080830151611446608086018261122a565b5060a083015161145960a08601826112fb565b5060c083015161146c60c086018261122a565b5060e083015161147f60e086018261122a565b506101008301518482036101008601526114998282611357565b9150506101208301518482036101208601526114b58282611290565b9150508091505092915050565b60006114ce83836113cc565b905092915050565b6000602082019050919050565b60006114ee826111f4565b6114f881856111ff565b93508360208202850161150a85611210565b8060005b85811015611546578484038952815161152785826114c2565b9450611532836114d6565b925060208a0199505060018101905061150e565b50829750879550505050505092915050565b6000602082019050818103600083015261157281846114e3565b905092915050565b6000604051905090565b600080fd5b600080fd5b61159781611220565b81146115a257600080fd5b50565b6000813590506115b48161158e565b92915050565b6000602082840312156115d0576115cf611584565b5b60006115de848285016115a5565b91505092915050565b600061014083016000830151611600600086018261122a565b50602083015184820360208601526116188282611290565b915050604083015184820360408601526116328282611290565b9150506060830151848203606086015261164c8282611290565b9150506080830151611661608086018261122a565b5060a083015161167460a08601826112fb565b5060c083015161168760c086018261122a565b5060e083015161169a60e086018261122a565b506101008301518482036101008601526116b48282611357565b9150506101208301518482036101208601526116d08282611290565b9150508091505092915050565b600060208201905081810360008301526116f781846115e7565b905092915050565b61170881611220565b82525050565b600060208201905061172360008301846116ff565b92915050565b600082825260208201905092915050565b600061174582611239565b61174f8185611729565b935061175f818560208601611255565b6117688161127f565b840191505092915050565b61177c816112e9565b82525050565b600061012082019050611798600083018c6116ff565b81810360208301526117aa818b61173a565b905081810360408301526117be818a61173a565b905081810360608301526117d2818961173a565b90506117e160808301886116ff565b6117ee60a0830187611773565b6117fb60c08301866116ff565b61180860e08301856116ff565b81810361010083015261181b818461173a565b90509a9950505050505050505050565b600080fd5b600080fd5b7f4e487b7100000000000000000000000000000000000000000000000000000000600052604160045260246000fd5b61186d8261127f565b810181811067ffffffffffffffff8211171561188c5761188b611835565b5b80604052505050565b600061189f61157a565b90506118ab8282611864565b919050565b600067ffffffffffffffff8211156118cb576118ca611835565b5b6118d48261127f565b9050602081019050919050565b82818337600083830152505050565b60006119036118fe846118b0565b611895565b90508281526020810184848401111561191f5761191e611830565b5b61192a8482856118e1565b509392505050565b600082601f8301126119475761194661182b565b5b81356119578482602086016118f0565b91505092915050565b600067ffffffffffffffff82111561197b5761197a611835565b5b602082029050602081019050919050565b600080fd5b60006119a461199f84611960565b611895565b905080838252602082019050602084028301858111156119c7576119c661198c565b5b835b81811015611a0e57803567ffffffffffffffff8111156119ec576119eb61182b565b5b8086016119f98982611932565b855260208501945050506020810190506119c9565b5050509392505050565b600082601f830112611a2d57611a2c61182b565b5b8135611a3d848260208601611991565b91505092915050565b600080600080600060a08688031215611a6257611a61611584565b5b600086013567ffffffffffffffff811115611a8057611a7f611589565b5b611a8c88828901611932565b955050602086013567ffffffffffffffff811115611aad57611aac611589565b5b611ab988828901611932565b945050604086013567ffffffffffffffff811115611ada57611ad9611589565b5b611ae688828901611932565b935050606086013567ffffffffffffffff811115611b0757611b06611589565b5b611b1388828901611a18565b925050608086013567ffffffffffffffff811115611b3457611b33611589565b5b611b4088828901611932565b9150509295509295909350565b7f4e487b7100000000000000000000000000000000000000000000000000000000600052602260045260246000fd5b60006002820490506001821680611b9457607f821691505b602082108103611ba757611ba6611b4d565b5b50919050565b7f4e487b7100000000000000000000000000000000000000000000000000000000600052601160045260246000fd5b6000611be782611220565b9150611bf283611220565b9250828203905081811115611c0a57611c09611bad565b5b92915050565b7f4e487b7100000000000000000000000000000000000000000000000000000000600052603260045260246000fd5b6000611c4a82611220565b91507fffffffffffffffffffffffffffffffffffffffffffffffffffffffffffffffff8203611c7c57611c7b611bad565b5b600182019050919050565b7f696e76616c696420696e64696361746f72204944000000000000000000000000600082015250565b6000611cbd601483611729565b9150611cc882611c87565b602082019050919050565b60006020820190508181036000830152611cec81611cb0565b9050919050565b6000611cfe82611220565b9150611d0983611220565b9250828201905080821115611d2157611d20611bad565b5b92915050565b60008190508160005260206000209050919050565b60008154611d4981611b7c565b611d538186611729565b94506001821660008114611d6e5760018114611d8457611db7565b60ff198316865281151560200286019350611db7565b611d8d85611d27565b60005b83811015611daf57815481890152600182019150602081019050611d90565b808801955050505b50505092915050565b6000819050919050565b611dd381611dc0565b82525050565b6000606082019050611dee60008301866116ff565b8181036020830152611e008185611d3c565b9050611e0f6040830184611dca565b949350505050565b7f636f6e666964656e636520616c72656164792030000000000000000000000000600082015250565b6000611e4d601483611729565b9150611e5882611e17565b602082019050919050565b60006020820190508181036000830152611e7c81611e40565b9050919050565b60008190508160005260206000209050919050565b60006020601f8301049050919050565b600082821b905092915050565b600060088302611ee57fffffffffffffffffffffffffffffffffffffffffffffffffffffffffffffffff82611ea8565b611eef8683611ea8565b95508019841693508086168417925050509392505050565b6000819050919050565b6000611f2c611f27611f2284611220565b611f07565b611220565b9050919050565b6000819050919050565b611f4683611f11565b611f5a611f5282611f33565b848454611eb5565b825550505050565b600090565b611f6f611f62565b611f7a818484611f3d565b505050565b5b81811015611f9e57611f93600082611f67565b600181019050611f80565b5050565b601f821115611fe357611fb481611e83565b611fbd84611e98565b81016020851015611fcc578190505b611fe0611fd885611e98565b830182611f7f565b50505b505050565b600082821c905092915050565b600061200660001984600802611fe8565b1980831691505092915050565b600061201f8383611ff5565b9150826002028217905092915050565b61203882611239565b67ffffffffffffffff81111561205157612050611835565b5b61205b8254611b7c565b612066828285611fa2565b600060209050601f8311600181146120995760008415612087578287015190505b6120918582612013565b8655506120f9565b601f1984166120a786611e83565b60005b828110156120cf578489015182556001820191506020850194506020810190506120aa565b868310156120ec57848901516120e8601f891682611ff5565b8355505b6001600288020188555050505b505050505050565b6000819050919050565b600061212661212161211c84612101565b611f07565b611220565b9050919050565b6121368161210b565b82525050565b600082825260208201905092915050565b60006121588261130a565b612162818561213c565b93508360208202850161217485611326565b8060005b858110156121b057848403895281516121918582611336565b945061219c8361134a565b925060208a01995050600181019050612178565b50829750879550505050505092915050565b6000610100820190506121d8600083018b6116ff565b81810360208301526121ea818a61173a565b905081810360408301526121fe818961173a565b90508181036060830152612212818861173a565b9050612221608083018761212d565b61222e60a0830186611773565b81810360c0830152612240818561214d565b905081810360e0830152612254818461173a565b9050999850505050505050505056fea264697066735822122080fe2179978d5b5357974c9946caf9be7dc659d0c4905234bf98187b20d9e4db64736f6c634300081c0033",
  "linkReferences": {},
  "deployedLinkReferences": {}
}